{
  "abi": [
    {
      "inputs": [
        {
          "internalType": "uint256",
          "name": "_numEpochs",
          "type": "uint256"
        },
        {
          "internalType": "uint256",
          "name": "_epochDuration",
          "type": "uint256"
        },
        {
          "internalType": "uint256",
          "name": "_lootWeight",
          "type": "uint256"
        },
        {
          "internalType": "uint256",
          "name": "_mLootWeight",
          "type": "uint256"
        },
        {
          "internalType": "address",
          "name": "lootAddress",
          "type": "address"
        },
        {
          "internalType": "address",
          "name": "mLootAddress",
          "type": "address"
        },
        {
          "internalType": "address",
          "name": "agldAddress",
          "type": "address"
        }
      ],
      "stateMutability": "nonpayable",
      "type": "constructor"
    },
    {
      "inputs": [],
      "name": "BagAlreadyStaked",
      "type": "error"
    },
    {
      "inputs": [],
      "name": "EpochInvalid",
      "type": "error"
    },
    {
      "inputs": [],
      "name": "NoRewards",
      "type": "error"
    },
    {
      "inputs": [],
      "name": "NotBagOwner",
      "type": "error"
    },
    {
      "inputs": [],
      "name": "StakingAlreadyStarted",
      "type": "error"
    },
    {
      "inputs": [],
      "name": "StakingEnded",
      "type": "error"
    },
    {
      "inputs": [],
      "name": "StakingNotActive",
      "type": "error"
    },
    {
      "inputs": [],
      "name": "StartTimeInvalid",
      "type": "error"
    },
    {
      "inputs": [],
      "name": "WeightsInvalid",
      "type": "error"
    },
    {
      "anonymous": false,
      "inputs": [
        {
          "indexed": true,
          "internalType": "address",
          "name": "_owner",
          "type": "address"
        },
        {
          "indexed": true,
          "internalType": "uint256",
          "name": "_numBags",
          "type": "uint256"
        }
      ],
      "name": "BagsStaked",
      "type": "event"
    },
    {
      "anonymous": false,
      "inputs": [
        {
          "indexed": true,
          "internalType": "address",
          "name": "previousOwner",
          "type": "address"
        },
        {
          "indexed": true,
          "internalType": "address",
          "name": "newOwner",
          "type": "address"
        }
      ],
      "name": "OwnershipTransferred",
      "type": "event"
    },
    {
      "anonymous": false,
      "inputs": [
        {
          "indexed": true,
          "internalType": "uint256",
          "name": "_rewards",
          "type": "uint256"
        }
      ],
      "name": "RewardsAdded",
      "type": "event"
    },
    {
      "anonymous": false,
      "inputs": [
        {
          "indexed": true,
          "internalType": "address",
          "name": "_owner",
          "type": "address"
        },
        {
          "indexed": true,
          "internalType": "uint256",
          "name": "_amount",
          "type": "uint256"
        }
      ],
      "name": "RewardsClaimed",
      "type": "event"
    },
    {
      "anonymous": false,
      "inputs": [
        {
          "indexed": true,
          "internalType": "uint256",
          "name": "_startTime",
          "type": "uint256"
        }
      ],
      "name": "StakingStarted",
      "type": "event"
    },
    {
      "anonymous": false,
      "inputs": [
        {
          "indexed": true,
          "internalType": "uint256",
          "name": "_lootWeight",
          "type": "uint256"
        },
        {
          "indexed": true,
          "internalType": "uint256",
          "name": "_mLootWeight",
          "type": "uint256"
        }
      ],
      "name": "WeightsSet",
      "type": "event"
    },
    {
      "inputs": [],
      "name": "AGLD",
      "outputs": [
        {
          "internalType": "contract ERC20",
          "name": "",
          "type": "address"
        }
      ],
      "stateMutability": "view",
      "type": "function"
    },
    {
      "inputs": [],
      "name": "LOOT",
      "outputs": [
        {
          "internalType": "contract ERC721",
          "name": "",
          "type": "address"
        }
      ],
      "stateMutability": "view",
      "type": "function"
    },
    {
      "inputs": [],
      "name": "MLOOT",
      "outputs": [
        {
          "internalType": "contract ERC721",
          "name": "",
          "type": "address"
        }
      ],
      "stateMutability": "view",
      "type": "function"
    },
    {
      "inputs": [
        {
          "internalType": "uint256[]",
          "name": "_ids",
          "type": "uint256[]"
        }
      ],
      "name": "claimLootRewards",
      "outputs": [],
      "stateMutability": "nonpayable",
      "type": "function"
    },
    {
      "inputs": [
        {
          "internalType": "uint256[]",
          "name": "_ids",
          "type": "uint256[]"
        }
      ],
      "name": "claimMLootRewards",
      "outputs": [],
      "stateMutability": "nonpayable",
      "type": "function"
    },
    {
      "inputs": [],
      "name": "epochDuration",
      "outputs": [
        {
          "internalType": "uint256",
          "name": "",
          "type": "uint256"
        }
      ],
      "stateMutability": "view",
      "type": "function"
    },
    {
      "inputs": [
        {
          "internalType": "uint256",
          "name": "",
          "type": "uint256"
        },
        {
          "internalType": "uint256",
          "name": "",
          "type": "uint256"
        }
      ],
      "name": "epochsByLootId",
      "outputs": [
        {
          "internalType": "uint256",
          "name": "",
          "type": "uint256"
        }
      ],
      "stateMutability": "view",
      "type": "function"
    },
    {
      "inputs": [
        {
          "internalType": "uint256",
          "name": "",
          "type": "uint256"
        },
        {
          "internalType": "uint256",
          "name": "",
          "type": "uint256"
        }
      ],
      "name": "epochsByMLootId",
      "outputs": [
        {
          "internalType": "uint256",
          "name": "",
          "type": "uint256"
        }
      ],
      "stateMutability": "view",
      "type": "function"
    },
    {
      "inputs": [
        {
          "internalType": "uint256",
          "name": "_id",
          "type": "uint256"
        }
      ],
      "name": "getClaimableRewardsForLootBag",
      "outputs": [
        {
          "internalType": "uint256",
          "name": "rewards",
          "type": "uint256"
        }
      ],
      "stateMutability": "view",
      "type": "function"
    },
    {
      "inputs": [
        {
          "internalType": "uint256",
          "name": "_id",
          "type": "uint256"
        }
      ],
      "name": "getClaimableRewardsForMLootBag",
      "outputs": [
        {
          "internalType": "uint256",
          "name": "rewards",
          "type": "uint256"
        }
      ],
      "stateMutability": "view",
      "type": "function"
    },
    {
      "inputs": [],
      "name": "getCurrentEpoch",
      "outputs": [
        {
          "internalType": "uint256",
          "name": "currentEpoch",
          "type": "uint256"
        }
      ],
      "stateMutability": "view",
      "type": "function"
    },
    {
      "inputs": [],
      "name": "getTotalRewardPerEpoch",
      "outputs": [
        {
          "internalType": "uint256",
          "name": "amount",
          "type": "uint256"
        }
      ],
      "stateMutability": "view",
      "type": "function"
    },
    {
      "inputs": [
        {
          "internalType": "uint256",
          "name": "_epoch",
          "type": "uint256"
        }
      ],
      "name": "getWeightsForEpoch",
      "outputs": [
        {
          "internalType": "uint256",
          "name": "lootWeight",
          "type": "uint256"
        },
        {
          "internalType": "uint256",
          "name": "mLootWeight",
          "type": "uint256"
        }
      ],
      "stateMutability": "view",
      "type": "function"
    },
    {
      "inputs": [
        {
          "internalType": "uint256",
          "name": "_amount",
          "type": "uint256"
        }
      ],
      "name": "notifyRewardAmount",
      "outputs": [],
      "stateMutability": "nonpayable",
      "type": "function"
    },
    {
      "inputs": [],
      "name": "numEpochs",
      "outputs": [
        {
          "internalType": "uint256",
          "name": "",
          "type": "uint256"
        }
      ],
      "stateMutability": "view",
      "type": "function"
    },
    {
      "inputs": [
        {
          "internalType": "uint256",
          "name": "",
          "type": "uint256"
        }
      ],
      "name": "numLootStakedByEpoch",
      "outputs": [
        {
          "internalType": "uint256",
          "name": "",
          "type": "uint256"
        }
      ],
      "stateMutability": "view",
      "type": "function"
    },
    {
      "inputs": [
        {
          "internalType": "uint256",
          "name": "",
          "type": "uint256"
        }
      ],
      "name": "numMLootStakedByEpoch",
      "outputs": [
        {
          "internalType": "uint256",
          "name": "",
          "type": "uint256"
        }
      ],
      "stateMutability": "view",
      "type": "function"
    },
    {
      "inputs": [],
      "name": "owner",
      "outputs": [
        {
          "internalType": "address",
          "name": "",
          "type": "address"
        }
      ],
      "stateMutability": "view",
      "type": "function"
    },
    {
      "inputs": [],
      "name": "renounceOwnership",
      "outputs": [],
      "stateMutability": "nonpayable",
      "type": "function"
    },
    {
      "inputs": [],
      "name": "rewardsAmount",
      "outputs": [
        {
          "internalType": "uint256",
          "name": "",
          "type": "uint256"
        }
      ],
      "stateMutability": "view",
      "type": "function"
    },
    {
      "inputs": [
        {
          "internalType": "uint256",
          "name": "_startTime",
          "type": "uint256"
        }
      ],
      "name": "setStakingStartTime",
      "outputs": [],
      "stateMutability": "nonpayable",
      "type": "function"
    },
    {
      "inputs": [
        {
          "internalType": "uint256",
          "name": "_epoch",
          "type": "uint256"
        },
        {
          "internalType": "uint256",
          "name": "_lootWeight",
          "type": "uint256"
        },
        {
          "internalType": "uint256",
          "name": "_mLootWeight",
          "type": "uint256"
        }
      ],
      "name": "setWeightsForEpoch",
      "outputs": [],
      "stateMutability": "nonpayable",
      "type": "function"
    },
    {
      "inputs": [
        {
          "internalType": "uint256[]",
          "name": "_ids",
          "type": "uint256[]"
        }
      ],
      "name": "signalLootStake",
      "outputs": [],
      "stateMutability": "nonpayable",
      "type": "function"
    },
    {
      "inputs": [
        {
          "internalType": "uint256[]",
          "name": "_ids",
          "type": "uint256[]"
        }
      ],
      "name": "signalMLootStake",
      "outputs": [],
      "stateMutability": "nonpayable",
      "type": "function"
    },
    {
      "inputs": [
        {
          "internalType": "uint256",
          "name": "",
          "type": "uint256"
        },
        {
          "internalType": "uint256",
          "name": "",
          "type": "uint256"
        }
      ],
      "name": "stakedLootIdsByEpoch",
      "outputs": [
        {
          "internalType": "bool",
          "name": "",
          "type": "bool"
        }
      ],
      "stateMutability": "view",
      "type": "function"
    },
    {
      "inputs": [
        {
          "internalType": "uint256",
          "name": "",
          "type": "uint256"
        },
        {
          "internalType": "uint256",
          "name": "",
          "type": "uint256"
        }
      ],
      "name": "stakedMLootIdsByEpoch",
      "outputs": [
        {
          "internalType": "bool",
          "name": "",
          "type": "bool"
        }
      ],
      "stateMutability": "view",
      "type": "function"
    },
    {
      "inputs": [],
      "name": "stakingStartTime",
      "outputs": [
        {
          "internalType": "uint256",
          "name": "",
          "type": "uint256"
        }
      ],
      "stateMutability": "view",
      "type": "function"
    },
    {
      "inputs": [
        {
          "internalType": "address",
          "name": "newOwner",
          "type": "address"
        }
      ],
      "name": "transferOwnership",
      "outputs": [],
      "stateMutability": "nonpayable",
      "type": "function"
    }
  ],
  "bytecode": {
    "object": "0x60c06040523480156200001157600080fd5b5060405162001b9338038062001b9383398101604081905262000034916200012f565b6200003f33620000c2565b600180546001600160a01b038086166001600160a01b0319928316178355600280548683169084161790556003805491851691909216179055608088905260a08790525b6080518111620000b45760008181526006602090815260408083208990556007909152902085905560010162000083565b5050505050505050620001a0565b600080546001600160a01b038381166001600160a01b0319831681178455604051919092169283917f8be0079c531659141344cd1fd0a4f28419497f9722a3daafe3b4186f6b6457e09190a35050565b80516001600160a01b03811681146200012a57600080fd5b919050565b600080600080600080600060e0888a0312156200014b57600080fd5b87519650602088015195506040880151945060608801519350620001726080890162000112565b92506200018260a0890162000112565b91506200019260c0890162000112565b905092959891949750929550565b60805160a0516119aa620001e96000396000818161023c0152818161062901526107970152600081816103770152818161048e015281816108380152610d5b01526119aa6000f3fe608060405234801561001057600080fd5b50600436106101c45760003560e01c8063969d36a0116100f9578063ebfda08511610097578063efb88c6511610071578063efb88c6514610431578063f2fde38b14610444578063f5b6fbd414610457578063f7374a001461046a57600080fd5b8063ebfda085146103eb578063ed782667146103fe578063edc72d8b1461041157600080fd5b8063b4be4888116100d3578063b4be488814610399578063b97dd9e2146103ac578063c13d995c146103b4578063c24ccaa6146103bd57600080fd5b8063969d36a01461034c5780639b4062d11461035f5780639c4707661461037257600080fd5b80636c4a829e116101665780637acf84f5116101405780637acf84f5146102bb5780638334011e146102e657806387d29d1c146103285780638da5cb5b1461033b57600080fd5b80636c4a829e1461028d578063715018a6146102a057806376e7e91c146102a857600080fd5b80634ff0876a116101a25780634ff0876a14610237578063516614251461025e5780635d90bad9146102715780636abfd1831461028457600080fd5b80630bb4c4bb146101c95780631dd12c78146101e45780633c6b16ab14610222575b600080fd5b6101d161048a565b6040519081526020015b60405180910390f35b6102126101f236600461176b565b600860209081526000928352604080842090915290825290205460ff1681565b60405190151581526020016101db565b61023561023036600461178d565b6104bf565b005b6101d17f000000000000000000000000000000000000000000000000000000000000000081565b6101d161026c36600461178d565b610549565b61023561027f36600461178d565b6105b6565b6101d160045481565b61023561029b3660046117a6565b6106a1565b6102356106c4565b6101d16102b636600461176b565b6106fa565b6002546102ce906001600160a01b031681565b6040516001600160a01b0390911681526020016101db565b6103136102f436600461178d565b6000908152600660209081526040808320546007909252909120549091565b604080519283526020830191909152016101db565b6003546102ce906001600160a01b031681565b6000546001600160a01b03166102ce565b61023561035a3660046117a6565b61072b565b6101d161036d36600461176b565b61074a565b6101d17f000000000000000000000000000000000000000000000000000000000000000081565b6102356103a73660046117a6565b610766565b6101d1610783565b6101d160055481565b6102126103cb36600461176b565b600b60209081526000928352604080842090915290825290205460ff1681565b6001546102ce906001600160a01b031681565b61023561040c3660046117a6565b6107d9565b6101d161041f36600461178d565b600a6020526000908152604090205481565b61023561043f36600461181b565b6107f6565b61023561045236600461185c565b6108f1565b6101d161046536600461178d565b61098c565b6101d161047836600461178d565b600d6020526000908152604090205481565b60007f00000000000000000000000000000000000000000000000000000000000000006005546104ba91906118a5565b905090565b6000546001600160a01b031633146104f25760405162461bcd60e51b81526004016104e9906118c7565b60405180910390fd5b6004541561051357604051636dbf23f160e11b815260040160405180910390fd5b600580548201905560405181907ff8fad42e780bfa5459be3fe691e8ba1aec70342250112139c5771c3fd155f31290600090a250565b6000818152600c6020908152604080832080548251818502810185019093528083526105b0936007939291908301828280156105a457602002820191906000526020600020905b815481526020019060010190808311610590575b5050505050600d6109ef565b92915050565b6000546001600160a01b031633146105e05760405162461bcd60e51b81526004016104e9906118c7565b60055460000361060357604051630fec21fd60e21b815260040160405180910390fd5b6004541561062457604051636dbf23f160e11b815260040160405180910390fd5b61064e7f0000000000000000000000000000000000000000000000000000000000000000426118fc565b81101561066e57604051632aeba70760e21b815260040160405180910390fd5b600481905560405181907fb86012c44e844c72c9cdc4b00c639e78d7a96cd093eb33d662cb480122ea69d190600090a250565b6001546106c090839083906001600160a01b031660066009600a610a87565b5050565b6000546001600160a01b031633146106ee5760405162461bcd60e51b81526004016104e9906118c7565b6106f86000610cda565b565b6009602052816000526040600020818154811061071657600080fd5b90600052602060002001600091509150505481565b6002546106c090839083906001600160a01b03166007600c600d610a87565b600c602052816000526040600020818154811061071657600080fd5b6001546106c090839083906001600160a01b03166008600a610d2a565b60006004544210156107955750600090565b7f0000000000000000000000000000000000000000000000000000000000000000600454426107c49190611914565b6107ce91906118a5565b6104ba9060016118fc565b6002546106c090839083906001600160a01b0316600b600d610d2a565b6000546001600160a01b031633146108205760405162461bcd60e51b81526004016104e9906118c7565b600061082a610783565b9050808411158061085a57507f000000000000000000000000000000000000000000000000000000000000000084115b156108785760405163dce171d360e01b815260040160405180910390fd5b61088282846118fc565b612710146108a35760405163124955fb60e01b815260040160405180910390fd5b6000848152600660209081526040808320869055600790915280822084905551839185917fdd66d0d77e3f97736c3a04f87e46aba70cf90de43c1a271565139a7c6b9c60959190a350505050565b6000546001600160a01b0316331461091b5760405162461bcd60e51b81526004016104e9906118c7565b6001600160a01b0381166109805760405162461bcd60e51b815260206004820152602660248201527f4f776e61626c653a206e6577206f776e657220697320746865207a65726f206160448201526564647265737360d01b60648201526084016104e9565b61098981610cda565b50565b600081815260096020908152604080832080548251818502810185019093528083526105b0936006939291908301828280156109e757602002820191906000526020600020905b8154815260200190600101908083116109d3575b5050505050600a5b6000806109fa61048a565b90506000610a06610783565b85519091506000805b82811015610a7b57878181518110610a2957610a2961192b565b60200260200101519150838214610a735760008281526020888152604080832054918c905290912054610a60908790612710610f32565b81610a6d57610a6d611879565b04860195505b600101610a0f565b50505050509392505050565b600080610a9261048a565b90506000610a9e610783565b9050876000808080805b85811015610c85578e8e82818110610ac257610ac261192b565b905060200201359450336001600160a01b03168d6001600160a01b0316636352211e876040518263ffffffff1660e01b8152600401610b0391815260200190565b602060405180830381865afa158015610b20573d6000803e3d6000fd5b505050506040513d601f19601f82011682018060405250810190610b449190611941565b6001600160a01b031614610b6b57604051635c786ae960e11b815260040160405180910390fd5b600085815260208c90526040812054945091505b83821015610bff57600085815260208c905260409020805483908110610ba757610ba761192b565b90600052602060002001549250868314610bf457600083815260208b8152604080832054918f905290912054610be1908a90612710610f32565b81610bee57610bee611879565b04890198505b816001019150610b7f565b600085815260208c9052604090208790610c1a600187611914565b81548110610c2a57610c2a61192b565b906000526020600020015403610c665760408051602080820183528982526000888152908e905291909120610c609160016116f1565b50610c7d565b600085815260208c905260408120610c7d9161173c565b600101610aa8565b50600354610c9d906001600160a01b0316338a610f6f565b604051889033907ffc30cddea38e2bf4d6ea7d3f9ed3b6ad7f176419f4963bd81318067a4aee73fe90600090a35050505050505050505050505050565b600080546001600160a01b038381166001600160a01b0319831681178455604051919092169283917f8be0079c531659141344cd1fd0a4f28419497f9722a3daafe3b4186f6b6457e09190a35050565b600454600003610d4d57604051631a4a6f3b60e21b815260040160405180910390fd5b6000610d57610783565b90507f00000000000000000000000000000000000000000000000000000000000000008110610d99576040516312776a0760e01b815260040160405180910390fd5b6000610da68260016118fc565b9050856000805b82811015610ef957898982818110610dc757610dc761192b565b905060200201359150336001600160a01b0316886001600160a01b0316636352211e846040518263ffffffff1660e01b8152600401610e0891815260200190565b602060405180830381865afa158015610e25573d6000803e3d6000fd5b505050506040513d601f19601f82011682018060405250810190610e499190611941565b6001600160a01b031614610e7057604051635c786ae960e11b815260040160405180910390fd5b60008481526020888152604080832085845290915290205460ff1615610ea957604051631b55f09560e01b815260040160405180910390fd5b600084815260208781526040808320805460019081019091558a83528184208685528352818420805460ff1916821790556009835290832080548083018255908452919092200185905501610dad565b50604051829033907f448539cd40a6d245c3aa41918ccdbb7870043f5891dedd4222b14c3fca944b7890600090a3505050505050505050565b6000610f67610f62610f54610f4687610fee565b610f4f87610fee565b611055565b610f5d85610fee565b6112e0565b611585565b949350505050565b600060405163a9059cbb60e01b81526001600160a01b03841660048201528260248201526000806044836000895af1915050610faa81611609565b610fe85760405162461bcd60e51b815260206004820152600f60248201526e1514905394d1915497d19052531151608a1b60448201526064016104e9565b50505050565b60008160000361100057506000919050565b81600061100c8261164e565b90506070811015611025578060700382901b9150611038565b6070811115611038576070810382901c91505b613fff0160701b6001600160701b03919091161760801b92915050565b6000617fff60f084811c8216919084901c8116908290036111055780617fff036110d0576001600160801b03198085169086160361109e57505050600160ff1b811682186105b0565b6001600160801b031985851816600160ff1b036110c0575050508181176105b0565b5061ffff60ef1b91506105b09050565b600160801b600160ff1b0384166000036110f4575061ffff60ef1b91506105b09050565b505050600160ff1b811682186105b0565b80617fff0361114357600160801b600160ff1b038516600003611132575061ffff60ef1b91506105b09050565b505050600160ff1b821681186105b0565b6001600160701b03608086901c166000839003611163576001925061116a565b600160701b175b6001600160701b03608086901c16600083900361118a5760019250611191565b600160701b175b8082029150816000036111c357600160ff1b878718166111b25760006111b8565b600160ff1b5b9450505050506105b0565b928201926000600160e11b8310156111f657600160e01b8310156111ef576111ea8361164e565b6111f9565b60e06111f9565b60e15b905061407081860110156112145760009450600092506112b1565b6140e081860110156112575761407085101561123957846140700383901c925061124e565b61407085111561124e57614070850383901b92505b600094506112b1565b61c0dd818601111561127157617fff9450600092506112b1565b6070811115611288576070810383901c925061129b565b607081101561129b578060700383901b92505b6001600160701b03831692506140df8186010394505b82607086901b888a186001607f1b60801b1660801c6001600160801b0316171760801b955050505050506105b0565b6000617fff60f084811c8216919084901c8116908290036113145780617fff036110f4575061ffff60ef1b91506105b09050565b80617fff03611357576dffffffffffffffffffffffffffff60801b841615611346575061ffff60ef1b91506105b09050565b505050808218600160ff1b166105b0565b600160801b600160ff1b0384166000036113a757600160801b600160ff1b03851660000361138f575061ffff60ef1b91506105b09050565b505050808218600160ff1b16617fff60f01b176105b0565b6001600160701b03608085901c1660008290036113c757600191506113ce565b600160701b175b6001600160701b03608087901c16600084900361141157801561140c5760006113f68261164e565b6001955060e20393840160711901939190911b90505b61141b565b600160701b1760721b5b81818161142a5761142a611879565b0490508060000361144957600160ff1b878718166111b25760006111b8565b6001606c1b81101561145d5761145d61195e565b6000600160731b82101561149c57600160721b82101561149157600160711b82101561148a576070611494565b6071611494565b60725b60ff166114a5565b6114a58261164e565b9050836140710181860111156114c357617fff945060009150611556565b83818601613ffc0110156114de576000945060009150611556565b83818601613f8c01101561152b578385613ffc011115611509578385613ffc010382901b9150611522565b8385613ffc01101561152257613ffc8585030382901c91505b60009450611556565b607081111561153e576070810382901c91505b6001600160701b038216915083818601613f8d010394505b81607086901b888a186001607f1b60801b1660801c6001600160801b0316171760801b955050505050506105b0565b6000617fff60f083901c16613fff8110156115a35750600092915050565b6001607f1b608084901c106115b757600080fd5b6140fe8111156115c657600080fd5b600160701b6001600160701b03608085901c161761406f8210156115f05761406f8290031c611602565b61406f8211156116025761406e1982011b5b9392505050565b60008161161a573d6000803e3d6000fd5b3d602081146116325780156116435760009150611648565b3d6000803e60005115159150611648565b600191505b50919050565b600080821161165c57600080fd5b6000600160801b831061167157608092831c92015b68010000000000000000831061168957604092831c92015b640100000000831061169d57602092831c92015b6201000083106116af57601092831c92015b61010083106116c057600892831c92015b601083106116d057600492831c92015b600483106116e057600292831c92015b600283106105b05760010192915050565b82805482825590600052602060002090810192821561172c579160200282015b8281111561172c578251825591602001919060010190611711565b50611738929150611756565b5090565b508054600082559060005260206000209081019061098991905b5b808211156117385760008155600101611757565b6000806040838503121561177e57600080fd5b50508035926020909101359150565b60006020828403121561179f57600080fd5b5035919050565b600080602083850312156117b957600080fd5b823567ffffffffffffffff808211156117d157600080fd5b818501915085601f8301126117e557600080fd5b8135818111156117f457600080fd5b8660208260051b850101111561180957600080fd5b60209290920196919550909350505050565b60008060006060848603121561183057600080fd5b505081359360208301359350604090920135919050565b6001600160a01b038116811461098957600080fd5b60006020828403121561186e57600080fd5b813561160281611847565b634e487b7160e01b600052601260045260246000fd5b634e487b7160e01b600052601160045260246000fd5b6000826118c257634e487b7160e01b600052601260045260246000fd5b500490565b6020808252818101527f4f776e61626c653a2063616c6c6572206973206e6f7420746865206f776e6572604082015260600190565b6000821982111561190f5761190f61188f565b500190565b6000828210156119265761192661188f565b500390565b634e487b7160e01b600052603260045260246000fd5b60006020828403121561195357600080fd5b815161160281611847565b634e487b7160e01b600052600160045260246000fdfea2646970667358221220b609f1e745fd1f1c79ac5b218f2b8b4d04163902ab370a020848188f2194e25564736f6c634300080d0033",
    "linkReferences": {}
  }
}